:0502C70034431010019A
:0302CC0001080125
:0C02BB00C290D291C297D29375A0FF228E
:10029B00E4FEEEC39F500B7DFADDFE7DFADDFE0E14
:0202AB0080F0E1
:0102AD00222E
:10028200E4FEEF339295EF25E0FFD297A294E43398
:080292004207C2970EBE08EA04
:01029A002241
:090268007D017F211202717F2249
:10027100C291120282AC07AF05120282D291AF0481
:01028100225A
:0C02AE00C291120282E4FF120282D2917F
:0102BA002221
:0601E9008B138A14891536
:1001EF00C291120282AD07E4FCECC395165017E4DE
:1001FF00FF120282AB13AA14A9158C82758300EF2C
:0A020F001200BC0C80E3D291AF0591
:0102190022C2
:0B01AF007BFF7A0279C77519057F2AD3
:0601BA008B168A1789185C
:1001C000C291120282AD07E4FCECC395195015AB45
:1001D00016AA17A9188C8275830012008FFF1202CD
:0801E000820C80E5D291AF050D
:0101E80022F4
:10021A00C2901201AF1202687D287F251202717DF9
:10022A00047F311202717D077F261202717D0F7FD2
:07023A0020120271D2902294
:1000DE008B128A138914C2907BFF7A0279C7751925
:1000EE00057F301201BA1201AFAB12AA13A9147513
:1000FE0019047FA01201BA1202687D0A7F2412022F
:10010E00717D287F251202717D077F261202717D77
:09011E000E7F20120271D2902222
:100241002093FD7FFF1202828F20300408300805C1
:100251007FE1120282AD207F27120271D293300515
:07026100037F00227FFF2252
:10012700E5B020E0407F1412029BE5B020E036E501
:1001370008F4F50E7B007A00790E1200DEE508F46C
:10014700F5A0D2081202417FFA12029B12029B7598
:10015700A0FF12021AE5B030E0FBE50825E0F5083C
:060167007003750801227F
:10016D001202BB12021A1201277F071202AE8F2054
:10017D003006117B007A00790A7516047F61120131
:10018D00E9750901AD207F27120271E50960D7E4F9
:10019D00F509850AA07FFA12029B12029B75A0FF3A
:0201AD0080C40C
:03000000020003F8
:0C000300787FE4F6D8FD75812102004AE8
:10008F00BB010CE58229F582E5833AF583E0225026
:10009F0006E92582F8E622BBFE06E92582F8E22270
:0D00AF00E58229F582E5833AF583E493228A
:1000BC00F8BB010DE58229F582E5833AF583E8F07A
:1000CC00225006E92582C8F622BBFE05E92582C826
:0200DC00F2220E
:10000F0002016DE493A3F8E493A34003F68001F299
:10001F0008DFF48029E493A3F85407240CC8C333F2
:10002F00C4540F4420C8834004F456800146F6DFC1
:10003F00E4800B01020408102040809002CCE47E83
:10004F00019360BCA3FF543F30E509541FFEE493B6
:10005F00A360010ECF54C025E060A840B8E493A37D
:10006F00FAE493A3F8E493A3C8C582C8CAC583CAA8
:10007F00F0A3C8C582C8CAC583CADFE9DEE780BE60
:0102CF00002E
:00000001FF
