:050AC400344310100195
:030AC90001080120
:0C0AB800C2B2D2B3C2B4D2B77580FF2224
:100A9800E4FEEEC39F500B7DFADDFE7DFADDFE0E0F
:020AA80080F0DC
:010AAA002229
:100A7F00E4FEEF3392B5EF25E0FFD2B4A2B6E43334
:080A8F004207C2B40EBE08EAE2
:010A9700223C
:090A65007D017F21120A6E7F223F
:100A6E00C2B3120A7FAC07AF05120A7FD2B3AF042E
:010A7E002255
:0C0AAB00C2B3120A7FE4FF120A7FD2B32C
:010AB700221C
:0609E6008B138A14891531
:1009EC00C2B3120A7FAD07E4FCECC395165017E4B2
:1009FC00FF120A7FAB13AA14A9158C82758300EF22
:0A0A0C001208B90C80E3D2B3AF0565
:010A160022BD
:0B09AC007BFF7A0A79C47519057F2AC9
:0609B7008B168A17891857
:1009BD00C2B3120A7FAD07E4FCECC395195015AB19
:1009CD0016AA17A9188C8275830012088CFF120ABB
:0809DD007F0C80E5D2B3AF05E9
:0109E50022EF
:100A1700C2B21209AC120A657D287F25120A6E7DC3
:100A2700047F31120A6E7D077F26120A6E7D0F7FC3
:070A370020120A6ED2B22268
:1008DB008B128A138914C2B27BFF7A0A79C47519F9
:1008EB00057F301209B71209ACAB12AA13A9147504
:1008FB0019047FA01209B7120A657D0A7F24120A18
:10090B006E7D287F25120A6E7D077F26120A6E7D6B
:09091B000E7F20120A6ED2B222F6
:100A3E0020B7FD7FFF120A7F8F2030040830080593
:100A4E007FE1120A7FAD207F27120A6ED2B73005E2
:070A5E00037F00227FFF224D
:10092400E59020E0407F14120A98E59020E036E537
:1009340008F4F50E7B007A00790E1208DBE508F462
:10094400F580D208120A3E7FFA120A98120A9875A4
:1009540080FF120A17E59030E0FBE50825E0F50872
:060964007003750801227A
:10096A00120AB8120A171209247F07120AAB8F203B
:10097A003006117B007A00790A7516047F61120924
:10098A00E6750901AD207F27120A6EE50960D7E4F2
:10099A00F509850A807FFA120A98120A987580FF6B
:0209AA0080C407
:03000000020800F3
:0C080000787FE4F6D8FD758121020847DE
:10088C00BB010CE58229F582E5833AF583E0225021
:10089C0006E92582F8E622BBFE06E92582F8E2226B
:0D08AC00E58229F582E5833AF583E4932285
:1008B900F8BB010DE58229F582E5833AF583E8F075
:1008C900225006E92582C8F622BBFE05E92582C821
:0208D900F22209
:10080C0002096AE493A3F8E493A34003F68001F28F
:10081C0008DFF48029E493A3F85407240CC8C333ED
:10082C00C4540F4420C8834004F456800146F6DFBC
:10083C00E4800B0102040810204080900AC9E47E79
:10084C00019360BCA3FF543F30E509541FFEE493B1
:10085C00A360010ECF54C025E060A840B8E493A378
:10086C00FAE493A3F8E493A3C8C582C8CAC583CAA3
:10087C00F0A3C8C582C8CAC583CADFE9DEE780BE5B
:010ACC000029
:00000001FF
